{
  "_format": "hh-sol-artifact-1",
  "contractName": "SatsProcure",
  "sourceName": "contracts/SatsProcure.sol",
  "abi": [
    {
      "anonymous": false,
      "inputs": [
        {
          "indexed": true,
          "internalType": "uint256",
          "name": "id",
          "type": "uint256"
        },
        {
          "indexed": false,
          "internalType": "string",
          "name": "invoiceNumber",
          "type": "string"
        }
      ],
      "name": "InvoiceCancelled",
      "type": "event"
    },
    {
      "anonymous": false,
      "inputs": [
        {
          "indexed": true,
          "internalType": "uint256",
          "name": "id",
          "type": "uint256"
        },
        {
          "indexed": false,
          "internalType": "string",
          "name": "invoiceNumber",
          "type": "string"
        },
        {
          "indexed": true,
          "internalType": "address",
          "name": "supplier",
          "type": "address"
        },
        {
          "indexed": true,
          "internalType": "address",
          "name": "buyer",
          "type": "address"
        },
        {
          "indexed": false,
          "internalType": "uint256",
          "name": "amount",
          "type": "uint256"
        },
        {
          "indexed": false,
          "internalType": "uint256",
          "name": "dueDate",
          "type": "uint256"
        }
      ],
      "name": "InvoiceCreated",
      "type": "event"
    },
    {
      "anonymous": false,
      "inputs": [
        {
          "indexed": true,
          "internalType": "uint256",
          "name": "id",
          "type": "uint256"
        },
        {
          "indexed": false,
          "internalType": "string",
          "name": "invoiceNumber",
          "type": "string"
        },
        {
          "indexed": true,
          "internalType": "address",
          "name": "payer",
          "type": "address"
        },
        {
          "indexed": false,
          "internalType": "uint256",
          "name": "amount",
          "type": "uint256"
        },
        {
          "indexed": false,
          "internalType": "uint256",
          "name": "paidAt",
          "type": "uint256"
        }
      ],
      "name": "InvoicePaid",
      "type": "event"
    },
    {
      "inputs": [
        {
          "internalType": "uint256",
          "name": "_id",
          "type": "uint256"
        }
      ],
      "name": "cancelInvoice",
      "outputs": [],
      "stateMutability": "nonpayable",
      "type": "function"
    },
    {
      "inputs": [
        {
          "internalType": "string",
          "name": "_invoiceNumber",
          "type": "string"
        },
        {
          "internalType": "address",
          "name": "_buyer",
          "type": "address"
        },
        {
          "internalType": "uint256",
          "name": "_amount",
          "type": "uint256"
        },
        {
          "internalType": "uint256",
          "name": "_dueDate",
          "type": "uint256"
        },
        {
          "internalType": "string",
          "name": "_notes",
          "type": "string"
        }
      ],
      "name": "createInvoice",
      "outputs": [],
      "stateMutability": "nonpayable",
      "type": "function"
    },
    {
      "inputs": [
        {
          "internalType": "uint256",
          "name": "_id",
          "type": "uint256"
        }
      ],
      "name": "getInvoice",
      "outputs": [
        {
          "components": [
            {
              "internalType": "uint256",
              "name": "id",
              "type": "uint256"
            },
            {
              "internalType": "string",
              "name": "invoiceNumber",
              "type": "string"
            },
            {
              "internalType": "address payable",
              "name": "supplier",
              "type": "address"
            },
            {
              "internalType": "address",
              "name": "buyer",
              "type": "address"
            },
            {
              "internalType": "uint256",
              "name": "amount",
              "type": "uint256"
            },
            {
              "internalType": "uint256",
              "name": "createdAt",
              "type": "uint256"
            },
            {
              "internalType": "uint256",
              "name": "dueDate",
              "type": "uint256"
            },
            {
              "internalType": "string",
              "name": "notes",
              "type": "string"
            },
            {
              "internalType": "bool",
              "name": "isPaid",
              "type": "bool"
            },
            {
              "internalType": "bool",
              "name": "isCancelled",
              "type": "bool"
            }
          ],
          "internalType": "struct SatsProcure.Invoice",
          "name": "",
          "type": "tuple"
        }
      ],
      "stateMutability": "view",
      "type": "function"
    },
    {
      "inputs": [],
      "name": "invoiceCount",
      "outputs": [
        {
          "internalType": "uint256",
          "name": "",
          "type": "uint256"
        }
      ],
      "stateMutability": "view",
      "type": "function"
    },
    {
      "inputs": [
        {
          "internalType": "string",
          "name": "",
          "type": "string"
        }
      ],
      "name": "invoiceNumberToId",
      "outputs": [
        {
          "internalType": "uint256",
          "name": "",
          "type": "uint256"
        }
      ],
      "stateMutability": "view",
      "type": "function"
    },
    {
      "inputs": [
        {
          "internalType": "uint256",
          "name": "",
          "type": "uint256"
        }
      ],
      "name": "invoices",
      "outputs": [
        {
          "internalType": "uint256",
          "name": "id",
          "type": "uint256"
        },
        {
          "internalType": "string",
          "name": "invoiceNumber",
          "type": "string"
        },
        {
          "internalType": "address payable",
          "name": "supplier",
          "type": "address"
        },
        {
          "internalType": "address",
          "name": "buyer",
          "type": "address"
        },
        {
          "internalType": "uint256",
          "name": "amount",
          "type": "uint256"
        },
        {
          "internalType": "uint256",
          "name": "createdAt",
          "type": "uint256"
        },
        {
          "internalType": "uint256",
          "name": "dueDate",
          "type": "uint256"
        },
        {
          "internalType": "string",
          "name": "notes",
          "type": "string"
        },
        {
          "internalType": "bool",
          "name": "isPaid",
          "type": "bool"
        },
        {
          "internalType": "bool",
          "name": "isCancelled",
          "type": "bool"
        }
      ],
      "stateMutability": "view",
      "type": "function"
    },
    {
      "inputs": [
        {
          "internalType": "uint256",
          "name": "_id",
          "type": "uint256"
        }
      ],
      "name": "payInvoice",
      "outputs": [],
      "stateMutability": "payable",
      "type": "function"
    }
  ],
  "bytecode": "0x608060405234801561001057600080fd5b50611f6e806100206000396000f3fe6080604052600436106100705760003560e01c806342c9813e1161004e57806342c9813e146101065780634e6d140514610143578063ac60a6cd14610189578063da9c273d146101a557610070565b80631346f0c414610075578063196362ab146100a05780633a23cc0a146100c9575b600080fd5b34801561008157600080fd5b5061008a6101ce565b6040516100979190610ef3565b60405180910390f35b3480156100ac57600080fd5b506100c760048036038101906100c291906110f2565b6101d4565b005b3480156100d557600080fd5b506100f060048036038101906100eb91906111a5565b61058f565b6040516100fd919061138c565b60405180910390f35b34801561011257600080fd5b5061012d600480360381019061012891906113ae565b6107eb565b60405161013a9190610ef3565b60405180910390f35b34801561014f57600080fd5b5061016a600480360381019061016591906111a5565b610819565b6040516101809a9998979695949392919061146e565b60405180910390f35b6101a3600480360381019061019e91906111a5565b6109d7565b005b3480156101b157600080fd5b506101cc60048036038101906101c791906111a5565b610c67565b005b60005481565b60008311610217576040517f08c379a000000000000000000000000000000000000000000000000000000000815260040161020e90611564565b60405180910390fd5b600073ffffffffffffffffffffffffffffffffffffffff168473ffffffffffffffffffffffffffffffffffffffff1603610286576040517f08c379a000000000000000000000000000000000000000000000000000000000815260040161027d906115d0565b60405180910390fd5b60008551116102ca576040517f08c379a00000000000000000000000000000000000000000000000000000000081526004016102c19061163c565b60405180910390fd5b60006002866040516102dc9190611698565b9081526020016040518091039020541461032b576040517f08c379a0000000000000000000000000000000000000000000000000000000008152600401610322906116fb565b60405180910390fd5b60008081548092919061033d9061174a565b919050555060405180610140016040528060005481526020018681526020013373ffffffffffffffffffffffffffffffffffffffff1681526020018573ffffffffffffffffffffffffffffffffffffffff1681526020018481526020014281526020018381526020018281526020016000151581526020016000151581525060016000805481526020019081526020016000206000820151816000015560208201518160010190816103ef919061199e565b5060408201518160020160006101000a81548173ffffffffffffffffffffffffffffffffffffffff021916908373ffffffffffffffffffffffffffffffffffffffff16021790555060608201518160030160006101000a81548173ffffffffffffffffffffffffffffffffffffffff021916908373ffffffffffffffffffffffffffffffffffffffff1602179055506080820151816004015560a0820151816005015560c0820151816006015560e08201518160070190816104b1919061199e565b506101008201518160080160006101000a81548160ff0219169083151502179055506101208201518160080160016101000a81548160ff02191690831515021790555090505060005460028660405161050a9190611698565b9081526020016040518091039020819055508373ffffffffffffffffffffffffffffffffffffffff163373ffffffffffffffffffffffffffffffffffffffff166000547fb9c954b64c637fb078d098a968736823712d8b9f503d52923b779a3638d4b3a188878760405161058093929190611a70565b60405180910390a45050505050565b610597610e57565b6001600083815260200190815260200160002060405180610140016040529081600082015481526020016001820180546105d0906117c1565b80601f01602080910402602001604051908101604052809291908181526020018280546105fc906117c1565b80156106495780601f1061061e57610100808354040283529160200191610649565b820191906000526020600020905b81548152906001019060200180831161062c57829003601f168201915b505050505081526020016002820160009054906101000a900473ffffffffffffffffffffffffffffffffffffffff1673ffffffffffffffffffffffffffffffffffffffff1673ffffffffffffffffffffffffffffffffffffffff1681526020016003820160009054906101000a900473ffffffffffffffffffffffffffffffffffffffff1673ffffffffffffffffffffffffffffffffffffffff1673ffffffffffffffffffffffffffffffffffffffff16815260200160048201548152602001600582015481526020016006820154815260200160078201805461072c906117c1565b80601f0160208091040260200160405190810160405280929190818152602001828054610758906117c1565b80156107a55780601f1061077a576101008083540402835291602001916107a5565b820191906000526020600020905b81548152906001019060200180831161078857829003601f168201915b505050505081526020016008820160009054906101000a900460ff161515151581526020016008820160019054906101000a900460ff1615151515815250509050919050565b6002818051602081018201805184825260208301602085012081835280955050505050506000915090505481565b6001602052806000526040600020600091509050806000015490806001018054610842906117c1565b80601f016020809104026020016040519081016040528092919081815260200182805461086e906117c1565b80156108bb5780601f10610890576101008083540402835291602001916108bb565b820191906000526020600020905b81548152906001019060200180831161089e57829003601f168201915b5050505050908060020160009054906101000a900473ffffffffffffffffffffffffffffffffffffffff16908060030160009054906101000a900473ffffffffffffffffffffffffffffffffffffffff169080600401549080600501549080600601549080600701805461092e906117c1565b80601f016020809104026020016040519081016040528092919081815260200182805461095a906117c1565b80156109a75780601f1061097c576101008083540402835291602001916109a7565b820191906000526020600020905b81548152906001019060200180831161098a57829003601f168201915b5050505050908060080160009054906101000a900460ff16908060080160019054906101000a900460ff1690508a565b60006001600083815260200190815260200160002090506000816000015403610a35576040517f08c379a0000000000000000000000000000000000000000000000000000000008152600401610a2c90611afa565b60405180910390fd5b8060080160009054906101000a900460ff1615610a87576040517f08c379a0000000000000000000000000000000000000000000000000000000008152600401610a7e90611b66565b60405180910390fd5b8060080160019054906101000a900460ff1615610ad9576040517f08c379a0000000000000000000000000000000000000000000000000000000008152600401610ad090611bd2565b60405180910390fd5b80600401543414610b1f576040517f08c379a0000000000000000000000000000000000000000000000000000000008152600401610b1690611c3e565b60405180910390fd5b60018160080160006101000a81548160ff02191690831515021790555060008160020160009054906101000a900473ffffffffffffffffffffffffffffffffffffffff1673ffffffffffffffffffffffffffffffffffffffff1634604051610b8690611c8f565b60006040518083038185875af1925050503d8060008114610bc3576040519150601f19603f3d011682016040523d82523d6000602084013e610bc8565b606091505b5050905080610c0c576040517f08c379a0000000000000000000000000000000000000000000000000000000008152600401610c0390611cf0565b60405180910390fd5b3373ffffffffffffffffffffffffffffffffffffffff16837f85a7508bc071188c9b624ef6d9f4fdee4bbab2f757d081690085acb74d8eed6b846001013442604051610c5a93929190611d94565b60405180910390a3505050565b60006001600083815260200190815260200160002090506000816000015403610cc5576040517f08c379a0000000000000000000000000000000000000000000000000000000008152600401610cbc90611afa565b60405180910390fd5b8060020160009054906101000a900473ffffffffffffffffffffffffffffffffffffffff1673ffffffffffffffffffffffffffffffffffffffff163373ffffffffffffffffffffffffffffffffffffffff1614610d57576040517f08c379a0000000000000000000000000000000000000000000000000000000008152600401610d4e90611e1e565b60405180910390fd5b8060080160009054906101000a900460ff1615610da9576040517f08c379a0000000000000000000000000000000000000000000000000000000008152600401610da090611e8a565b60405180910390fd5b8060080160019054906101000a900460ff1615610dfb576040517f08c379a0000000000000000000000000000000000000000000000000000000008152600401610df290611ef6565b60405180910390fd5b60018160080160016101000a81548160ff021916908315150217905550817fcd25ab8c3ec2731c81120b0f6206453bd5b52954eb4e795c271397ea2480a41f82600101604051610e4b9190611f16565b60405180910390a25050565b6040518061014001604052806000815260200160608152602001600073ffffffffffffffffffffffffffffffffffffffff168152602001600073ffffffffffffffffffffffffffffffffffffffff168152602001600081526020016000815260200160008152602001606081526020016000151581526020016000151581525090565b6000819050919050565b610eed81610eda565b82525050565b6000602082019050610f086000830184610ee4565b92915050565b6000604051905090565b600080fd5b600080fd5b600080fd5b600080fd5b6000601f19601f8301169050919050565b7f4e487b7100000000000000000000000000000000000000000000000000000000600052604160045260246000fd5b610f7582610f2c565b810181811067ffffffffffffffff82111715610f9457610f93610f3d565b5b80604052505050565b6000610fa7610f0e565b9050610fb38282610f6c565b919050565b600067ffffffffffffffff821115610fd357610fd2610f3d565b5b610fdc82610f2c565b9050602081019050919050565b82818337600083830152505050565b600061100b61100684610fb8565b610f9d565b90508281526020810184848401111561102757611026610f27565b5b611032848285610fe9565b509392505050565b600082601f83011261104f5761104e610f22565b5b813561105f848260208601610ff8565b91505092915050565b600073ffffffffffffffffffffffffffffffffffffffff82169050919050565b600061109382611068565b9050919050565b6110a381611088565b81146110ae57600080fd5b50565b6000813590506110c08161109a565b92915050565b6110cf81610eda565b81146110da57600080fd5b50565b6000813590506110ec816110c6565b92915050565b600080600080600060a0868803121561110e5761110d610f18565b5b600086013567ffffffffffffffff81111561112c5761112b610f1d565b5b6111388882890161103a565b9550506020611149888289016110b1565b945050604061115a888289016110dd565b935050606061116b888289016110dd565b925050608086013567ffffffffffffffff81111561118c5761118b610f1d565b5b6111988882890161103a565b9150509295509295909350565b6000602082840312156111bb576111ba610f18565b5b60006111c9848285016110dd565b91505092915050565b6111db81610eda565b82525050565b600081519050919050565b600082825260208201905092915050565b60005b8381101561121b578082015181840152602081019050611200565b60008484015250505050565b6000611232826111e1565b61123c81856111ec565b935061124c8185602086016111fd565b61125581610f2c565b840191505092915050565b600061126b82611068565b9050919050565b61127b81611260565b82525050565b61128a81611088565b82525050565b60008115159050919050565b6112a581611290565b82525050565b6000610140830160008301516112c460008601826111d2565b50602083015184820360208601526112dc8282611227565b91505060408301516112f16040860182611272565b5060608301516113046060860182611281565b50608083015161131760808601826111d2565b5060a083015161132a60a08601826111d2565b5060c083015161133d60c08601826111d2565b5060e083015184820360e08601526113558282611227565b91505061010083015161136c61010086018261129c565b5061012083015161138161012086018261129c565b508091505092915050565b600060208201905081810360008301526113a681846112ab565b905092915050565b6000602082840312156113c4576113c3610f18565b5b600082013567ffffffffffffffff8111156113e2576113e1610f1d565b5b6113ee8482850161103a565b91505092915050565b600082825260208201905092915050565b6000611413826111e1565b61141d81856113f7565b935061142d8185602086016111fd565b61143681610f2c565b840191505092915050565b61144a81611260565b82525050565b61145981611088565b82525050565b61146881611290565b82525050565b600061014082019050611484600083018d610ee4565b8181036020830152611496818c611408565b90506114a5604083018b611441565b6114b2606083018a611450565b6114bf6080830189610ee4565b6114cc60a0830188610ee4565b6114d960c0830187610ee4565b81810360e08301526114eb8186611408565b90506114fb61010083018561145f565b61150961012083018461145f565b9b9a5050505050505050505050565b7f416d6f756e74206d7573742062652067726561746572207468616e2030000000600082015250565b600061154e601d836113f7565b915061155982611518565b602082019050919050565b6000602082019050818103600083015261157d81611541565b9050919050565b7f496e76616c696420627579657220616464726573730000000000000000000000600082015250565b60006115ba6015836113f7565b91506115c582611584565b602082019050919050565b600060208201905081810360008301526115e9816115ad565b9050919050565b7f496e766f696365206e756d626572206973207265717569726564000000000000600082015250565b6000611626601a836113f7565b9150611631826115f0565b602082019050919050565b6000602082019050818103600083015261165581611619565b9050919050565b600081905092915050565b6000611672826111e1565b61167c818561165c565b935061168c8185602086016111fd565b80840191505092915050565b60006116a48284611667565b915081905092915050565b7f496e766f696365206e756d62657220616c726561647920657869737473000000600082015250565b60006116e5601d836113f7565b91506116f0826116af565b602082019050919050565b60006020820190508181036000830152611714816116d8565b9050919050565b7f4e487b7100000000000000000000000000000000000000000000000000000000600052601160045260246000fd5b600061175582610eda565b91507fffffffffffffffffffffffffffffffffffffffffffffffffffffffffffffffff82036117875761178661171b565b5b600182019050919050565b7f4e487b7100000000000000000000000000000000000000000000000000000000600052602260045260246000fd5b600060028204905060018216806117d957607f821691505b6020821081036117ec576117eb611792565b5b50919050565b60008190508160005260206000209050919050565b60006020601f8301049050919050565b600082821b905092915050565b6000600883026118547fffffffffffffffffffffffffffffffffffffffffffffffffffffffffffffffff82611817565b61185e8683611817565b95508019841693508086168417925050509392505050565b6000819050919050565b600061189b61189661189184610eda565b611876565b610eda565b9050919050565b6000819050919050565b6118b583611880565b6118c96118c1826118a2565b848454611824565b825550505050565b600090565b6118de6118d1565b6118e98184846118ac565b505050565b5b8181101561190d576119026000826118d6565b6001810190506118ef565b5050565b601f82111561195257611923816117f2565b61192c84611807565b8101602085101561193b578190505b61194f61194785611807565b8301826118ee565b50505b505050565b600082821c905092915050565b600061197560001984600802611957565b1980831691505092915050565b600061198e8383611964565b9150826002028217905092915050565b6119a7826111e1565b67ffffffffffffffff8111156119c0576119bf610f3d565b5b6119ca82546117c1565b6119d5828285611911565b600060209050601f831160018114611a0857600084156119f6578287015190505b611a008582611982565b865550611a68565b601f198416611a16866117f2565b60005b82811015611a3e57848901518255600182019150602085019450602081019050611a19565b86831015611a5b5784890151611a57601f891682611964565b8355505b6001600288020188555050505b505050505050565b60006060820190508181036000830152611a8a8186611408565b9050611a996020830185610ee4565b611aa66040830184610ee4565b949350505050565b7f496e766f69636520646f6573206e6f7420657869737400000000000000000000600082015250565b6000611ae46016836113f7565b9150611aef82611aae565b602082019050919050565b60006020820190508181036000830152611b1381611ad7565b9050919050565b7f496e766f69636520697320616c72656164792070616964000000000000000000600082015250565b6000611b506017836113f7565b9150611b5b82611b1a565b602082019050919050565b60006020820190508181036000830152611b7f81611b43565b9050919050565b7f496e766f6963652069732063616e63656c6c6564000000000000000000000000600082015250565b6000611bbc6014836113f7565b9150611bc782611b86565b602082019050919050565b60006020820190508181036000830152611beb81611baf565b9050919050565b7f496e636f7272656374207061796d656e7420616d6f756e740000000000000000600082015250565b6000611c286018836113f7565b9150611c3382611bf2565b602082019050919050565b60006020820190508181036000830152611c5781611c1b565b9050919050565b600081905092915050565b50565b6000611c79600083611c5e565b9150611c8482611c69565b600082019050919050565b6000611c9a82611c6c565b9150819050919050565b7f5472616e7366657220746f20737570706c696572206661696c65640000000000600082015250565b6000611cda601b836113f7565b9150611ce582611ca4565b602082019050919050565b60006020820190508181036000830152611d0981611ccd565b9050919050565b60008154611d1d816117c1565b611d2781866113f7565b94506001821660008114611d425760018114611d5857611d8b565b60ff198316865281151560200286019350611d8b565b611d61856117f2565b60005b83811015611d8357815481890152600182019150602081019050611d64565b808801955050505b50505092915050565b60006060820190508181036000830152611dae8186611d10565b9050611dbd6020830185610ee4565b611dca6040830184610ee4565b949350505050565b7f4f6e6c7920737570706c6965722063616e2063616e63656c0000000000000000600082015250565b6000611e086018836113f7565b9150611e1382611dd2565b602082019050919050565b60006020820190508181036000830152611e3781611dfb565b9050919050565b7f43616e6e6f742063616e63656c207061696420696e766f696365000000000000600082015250565b6000611e74601a836113f7565b9150611e7f82611e3e565b602082019050919050565b60006020820190508181036000830152611ea381611e67565b9050919050565b7f496e766f69636520697320616c72656164792063616e63656c6c656400000000600082015250565b6000611ee0601c836113f7565b9150611eeb82611eaa565b602082019050919050565b60006020820190508181036000830152611f0f81611ed3565b9050919050565b60006020820190508181036000830152611f308184611d10565b90509291505056fea2646970667358221220f838d8327d331a4f8efc73d9d804847ca41e25229fb1b2d1bc24c9416454c23364736f6c63430008130033",
  "linkReferences": {},
  "deployedLinkReferences": {}
}