{
  "_format": "hh-sol-artifact-1",
  "contractName": "SatsProcure",
  "sourceName": "contracts/SatsProcure.sol",
  "abi": [
    {
      "anonymous": false,
      "inputs": [
        {
          "indexed": true,
          "internalType": "uint256",
          "name": "id",
          "type": "uint256"
        },
        {
          "indexed": true,
          "internalType": "address",
          "name": "supplier",
          "type": "address"
        },
        {
          "indexed": false,
          "internalType": "uint256",
          "name": "amount",
          "type": "uint256"
        }
      ],
      "name": "FundsReleased",
      "type": "event"
    },
    {
      "anonymous": false,
      "inputs": [
        {
          "indexed": true,
          "internalType": "uint256",
          "name": "id",
          "type": "uint256"
        },
        {
          "indexed": false,
          "internalType": "string",
          "name": "invoiceNumber",
          "type": "string"
        }
      ],
      "name": "InvoiceCancelled",
      "type": "event"
    },
    {
      "anonymous": false,
      "inputs": [
        {
          "indexed": true,
          "internalType": "uint256",
          "name": "id",
          "type": "uint256"
        },
        {
          "indexed": false,
          "internalType": "string",
          "name": "invoiceNumber",
          "type": "string"
        },
        {
          "indexed": true,
          "internalType": "address",
          "name": "supplier",
          "type": "address"
        },
        {
          "indexed": true,
          "internalType": "address",
          "name": "buyer",
          "type": "address"
        },
        {
          "indexed": false,
          "internalType": "uint256",
          "name": "amount",
          "type": "uint256"
        },
        {
          "indexed": false,
          "internalType": "uint256",
          "name": "dueDate",
          "type": "uint256"
        }
      ],
      "name": "InvoiceCreated",
      "type": "event"
    },
    {
      "anonymous": false,
      "inputs": [
        {
          "indexed": true,
          "internalType": "uint256",
          "name": "id",
          "type": "uint256"
        },
        {
          "indexed": true,
          "internalType": "address",
          "name": "payer",
          "type": "address"
        },
        {
          "indexed": false,
          "internalType": "uint256",
          "name": "amount",
          "type": "uint256"
        },
        {
          "indexed": false,
          "internalType": "uint256",
          "name": "totalPaid",
          "type": "uint256"
        }
      ],
      "name": "PaymentReceived",
      "type": "event"
    },
    {
      "inputs": [
        {
          "internalType": "address",
          "name": "",
          "type": "address"
        },
        {
          "internalType": "uint256",
          "name": "",
          "type": "uint256"
        }
      ],
      "name": "buyerInvoices",
      "outputs": [
        {
          "internalType": "uint256",
          "name": "",
          "type": "uint256"
        }
      ],
      "stateMutability": "view",
      "type": "function"
    },
    {
      "inputs": [
        {
          "internalType": "uint256",
          "name": "_id",
          "type": "uint256"
        }
      ],
      "name": "cancelInvoice",
      "outputs": [],
      "stateMutability": "nonpayable",
      "type": "function"
    },
    {
      "inputs": [
        {
          "internalType": "uint256",
          "name": "_id",
          "type": "uint256"
        }
      ],
      "name": "confirmReceipt",
      "outputs": [],
      "stateMutability": "nonpayable",
      "type": "function"
    },
    {
      "inputs": [
        {
          "internalType": "string",
          "name": "_invoiceNumber",
          "type": "string"
        },
        {
          "internalType": "address",
          "name": "_buyer",
          "type": "address"
        },
        {
          "internalType": "uint256",
          "name": "_amount",
          "type": "uint256"
        },
        {
          "internalType": "uint256",
          "name": "_dueDate",
          "type": "uint256"
        },
        {
          "internalType": "string",
          "name": "_notes",
          "type": "string"
        }
      ],
      "name": "createInvoice",
      "outputs": [],
      "stateMutability": "nonpayable",
      "type": "function"
    },
    {
      "inputs": [
        {
          "internalType": "uint256",
          "name": "_id",
          "type": "uint256"
        }
      ],
      "name": "getInvoice",
      "outputs": [
        {
          "components": [
            {
              "internalType": "uint256",
              "name": "id",
              "type": "uint256"
            },
            {
              "internalType": "string",
              "name": "invoiceNumber",
              "type": "string"
            },
            {
              "internalType": "address payable",
              "name": "supplier",
              "type": "address"
            },
            {
              "internalType": "address",
              "name": "buyer",
              "type": "address"
            },
            {
              "internalType": "uint256",
              "name": "amount",
              "type": "uint256"
            },
            {
              "internalType": "uint256",
              "name": "createdAt",
              "type": "uint256"
            },
            {
              "internalType": "uint256",
              "name": "dueDate",
              "type": "uint256"
            },
            {
              "internalType": "string",
              "name": "notes",
              "type": "string"
            },
            {
              "internalType": "bool",
              "name": "isPaid",
              "type": "bool"
            },
            {
              "internalType": "bool",
              "name": "isCancelled",
              "type": "bool"
            },
            {
              "internalType": "uint256",
              "name": "amountPaid",
              "type": "uint256"
            },
            {
              "internalType": "uint256",
              "name": "amountReleased",
              "type": "uint256"
            }
          ],
          "internalType": "struct SatsProcure.Invoice",
          "name": "",
          "type": "tuple"
        }
      ],
      "stateMutability": "view",
      "type": "function"
    },
    {
      "inputs": [],
      "name": "getMyBuyerInvoices",
      "outputs": [
        {
          "components": [
            {
              "internalType": "uint256",
              "name": "id",
              "type": "uint256"
            },
            {
              "internalType": "string",
              "name": "invoiceNumber",
              "type": "string"
            },
            {
              "internalType": "address payable",
              "name": "supplier",
              "type": "address"
            },
            {
              "internalType": "address",
              "name": "buyer",
              "type": "address"
            },
            {
              "internalType": "uint256",
              "name": "amount",
              "type": "uint256"
            },
            {
              "internalType": "uint256",
              "name": "createdAt",
              "type": "uint256"
            },
            {
              "internalType": "uint256",
              "name": "dueDate",
              "type": "uint256"
            },
            {
              "internalType": "string",
              "name": "notes",
              "type": "string"
            },
            {
              "internalType": "bool",
              "name": "isPaid",
              "type": "bool"
            },
            {
              "internalType": "bool",
              "name": "isCancelled",
              "type": "bool"
            },
            {
              "internalType": "uint256",
              "name": "amountPaid",
              "type": "uint256"
            },
            {
              "internalType": "uint256",
              "name": "amountReleased",
              "type": "uint256"
            }
          ],
          "internalType": "struct SatsProcure.Invoice[]",
          "name": "",
          "type": "tuple[]"
        }
      ],
      "stateMutability": "view",
      "type": "function"
    },
    {
      "inputs": [],
      "name": "getMySupplierInvoices",
      "outputs": [
        {
          "components": [
            {
              "internalType": "uint256",
              "name": "id",
              "type": "uint256"
            },
            {
              "internalType": "string",
              "name": "invoiceNumber",
              "type": "string"
            },
            {
              "internalType": "address payable",
              "name": "supplier",
              "type": "address"
            },
            {
              "internalType": "address",
              "name": "buyer",
              "type": "address"
            },
            {
              "internalType": "uint256",
              "name": "amount",
              "type": "uint256"
            },
            {
              "internalType": "uint256",
              "name": "createdAt",
              "type": "uint256"
            },
            {
              "internalType": "uint256",
              "name": "dueDate",
              "type": "uint256"
            },
            {
              "internalType": "string",
              "name": "notes",
              "type": "string"
            },
            {
              "internalType": "bool",
              "name": "isPaid",
              "type": "bool"
            },
            {
              "internalType": "bool",
              "name": "isCancelled",
              "type": "bool"
            },
            {
              "internalType": "uint256",
              "name": "amountPaid",
              "type": "uint256"
            },
            {
              "internalType": "uint256",
              "name": "amountReleased",
              "type": "uint256"
            }
          ],
          "internalType": "struct SatsProcure.Invoice[]",
          "name": "",
          "type": "tuple[]"
        }
      ],
      "stateMutability": "view",
      "type": "function"
    },
    {
      "inputs": [],
      "name": "invoiceCount",
      "outputs": [
        {
          "internalType": "uint256",
          "name": "",
          "type": "uint256"
        }
      ],
      "stateMutability": "view",
      "type": "function"
    },
    {
      "inputs": [
        {
          "internalType": "string",
          "name": "",
          "type": "string"
        }
      ],
      "name": "invoiceNumberToId",
      "outputs": [
        {
          "internalType": "uint256",
          "name": "",
          "type": "uint256"
        }
      ],
      "stateMutability": "view",
      "type": "function"
    },
    {
      "inputs": [
        {
          "internalType": "uint256",
          "name": "",
          "type": "uint256"
        }
      ],
      "name": "invoices",
      "outputs": [
        {
          "internalType": "uint256",
          "name": "id",
          "type": "uint256"
        },
        {
          "internalType": "string",
          "name": "invoiceNumber",
          "type": "string"
        },
        {
          "internalType": "address payable",
          "name": "supplier",
          "type": "address"
        },
        {
          "internalType": "address",
          "name": "buyer",
          "type": "address"
        },
        {
          "internalType": "uint256",
          "name": "amount",
          "type": "uint256"
        },
        {
          "internalType": "uint256",
          "name": "createdAt",
          "type": "uint256"
        },
        {
          "internalType": "uint256",
          "name": "dueDate",
          "type": "uint256"
        },
        {
          "internalType": "string",
          "name": "notes",
          "type": "string"
        },
        {
          "internalType": "bool",
          "name": "isPaid",
          "type": "bool"
        },
        {
          "internalType": "bool",
          "name": "isCancelled",
          "type": "bool"
        },
        {
          "internalType": "uint256",
          "name": "amountPaid",
          "type": "uint256"
        },
        {
          "internalType": "uint256",
          "name": "amountReleased",
          "type": "uint256"
        }
      ],
      "stateMutability": "view",
      "type": "function"
    },
    {
      "inputs": [
        {
          "internalType": "uint256",
          "name": "_id",
          "type": "uint256"
        }
      ],
      "name": "payInvoice",
      "outputs": [],
      "stateMutability": "payable",
      "type": "function"
    },
    {
      "inputs": [
        {
          "internalType": "address",
          "name": "",
          "type": "address"
        },
        {
          "internalType": "uint256",
          "name": "",
          "type": "uint256"
        }
      ],
      "name": "supplierInvoices",
      "outputs": [
        {
          "internalType": "uint256",
          "name": "",
          "type": "uint256"
        }
      ],
      "stateMutability": "view",
      "type": "function"
    }
  ],
  "bytecode": "0x608060405234801561001057600080fd5b506131ac806100206000396000f3fe6080604052600436106100a75760003560e01c806342c9813e1161006457806342c9813e146101e25780634e6d14051461021f578063843cba131461026757806386e17bbe14610290578063ac60a6cd146102bb578063da9c273d146102d7576100a7565b80631346f0c4146100ac5780631810d8c6146100d7578063196362ab14610102578063285c8eac1461012b57806335c3c1e1146101685780633a23cc0a146101a5575b600080fd5b3480156100b857600080fd5b506100c1610300565b6040516100ce9190611c62565b60405180910390f35b3480156100e357600080fd5b506100ec610306565b6040516100f99190611f66565b60405180910390f35b34801561010e57600080fd5b5061012960048036038101906101249190612129565b6106b4565b005b34801561013757600080fd5b50610152600480360381019061014d91906121dc565b610b63565b60405161015f9190611c62565b60405180910390f35b34801561017457600080fd5b5061018f600480360381019061018a91906121dc565b610b94565b60405161019c9190611c62565b60405180910390f35b3480156101b157600080fd5b506101cc60048036038101906101c7919061221c565b610bc5565b6040516101d99190612354565b60405180910390f35b3480156101ee57600080fd5b5061020960048036038101906102049190612376565b610e35565b6040516102169190611c62565b60405180910390f35b34801561022b57600080fd5b506102466004803603810190610241919061221c565b610e63565b60405161025e9c9b9a99989796959493929190612436565b60405180910390f35b34801561027357600080fd5b5061028e6004803603810190610289919061221c565b61102d565b005b34801561029c57600080fd5b506102a56112dc565b6040516102b29190611f66565b60405180910390f35b6102d560048036038101906102d0919061221c565b61168a565b005b3480156102e357600080fd5b506102fe60048036038101906102f9919061221c565b6118c6565b005b60005481565b60606000600360003373ffffffffffffffffffffffffffffffffffffffff1673ffffffffffffffffffffffffffffffffffffffff16815260200190815260200160002080548060200260200160405190810160405280929190818152602001828054801561039357602002820191906000526020600020905b81548152602001906001019080831161037f575b505050505090506000815167ffffffffffffffff8111156103b7576103b6611fa6565b5b6040519080825280602002602001820160405280156103f057816020015b6103dd611bb8565b8152602001906001900390816103d55790505b50905060005b82518110156106ab5760016000848381518110610416576104156124fe565b5b6020026020010151815260200190815260200160002060405180610180016040529081600082015481526020016001820180546104529061255c565b80601f016020809104026020016040519081016040528092919081815260200182805461047e9061255c565b80156104cb5780601f106104a0576101008083540402835291602001916104cb565b820191906000526020600020905b8154815290600101906020018083116104ae57829003601f168201915b505050505081526020016002820160009054906101000a900473ffffffffffffffffffffffffffffffffffffffff1673ffffffffffffffffffffffffffffffffffffffff1673ffffffffffffffffffffffffffffffffffffffff1681526020016003820160009054906101000a900473ffffffffffffffffffffffffffffffffffffffff1673ffffffffffffffffffffffffffffffffffffffff1673ffffffffffffffffffffffffffffffffffffffff1681526020016004820154815260200160058201548152602001600682015481526020016007820180546105ae9061255c565b80601f01602080910402602001604051908101604052809291908181526020018280546105da9061255c565b80156106275780601f106105fc57610100808354040283529160200191610627565b820191906000526020600020905b81548152906001019060200180831161060a57829003601f168201915b505050505081526020016008820160009054906101000a900460ff161515151581526020016008820160019054906101000a900460ff1615151515815260200160098201548152602001600a8201548152505082828151811061068d5761068c6124fe565b5b602002602001018190525080806106a3906125bc565b9150506103f6565b50809250505090565b600083116106f7576040517f08c379a00000000000000000000000000000000000000000000000000000000081526004016106ee90612650565b60405180910390fd5b600073ffffffffffffffffffffffffffffffffffffffff168473ffffffffffffffffffffffffffffffffffffffff1603610766576040517f08c379a000000000000000000000000000000000000000000000000000000000815260040161075d906126bc565b60405180910390fd5b60008551116107aa576040517f08c379a00000000000000000000000000000000000000000000000000000000081526004016107a190612728565b60405180910390fd5b60006002866040516107bc9190612784565b9081526020016040518091039020541461080b576040517f08c379a0000000000000000000000000000000000000000000000000000000008152600401610802906127e7565b60405180910390fd5b60008081548092919061081d906125bc565b919050555060405180610180016040528060005481526020018681526020013373ffffffffffffffffffffffffffffffffffffffff1681526020018573ffffffffffffffffffffffffffffffffffffffff16815260200184815260200142815260200183815260200182815260200160001515815260200160001515815260200160008152602001600081525060016000805481526020019081526020016000206000820151816000015560208201518160010190816108dd91906129b3565b5060408201518160020160006101000a81548173ffffffffffffffffffffffffffffffffffffffff021916908373ffffffffffffffffffffffffffffffffffffffff16021790555060608201518160030160006101000a81548173ffffffffffffffffffffffffffffffffffffffff021916908373ffffffffffffffffffffffffffffffffffffffff1602179055506080820151816004015560a0820151816005015560c0820151816006015560e082015181600701908161099f91906129b3565b506101008201518160080160006101000a81548160ff0219169083151502179055506101208201518160080160016101000a81548160ff021916908315150217905550610140820151816009015561016082015181600a0155905050600054600286604051610a0e9190612784565b908152602001604051809103902081905550600360003373ffffffffffffffffffffffffffffffffffffffff1673ffffffffffffffffffffffffffffffffffffffff1681526020019081526020016000206000549080600181540180825580915050600190039060005260206000200160009091909190915055600460008573ffffffffffffffffffffffffffffffffffffffff1673ffffffffffffffffffffffffffffffffffffffff16815260200190815260200160002060005490806001815401808255809150506001900390600052602060002001600090919091909150558373ffffffffffffffffffffffffffffffffffffffff163373ffffffffffffffffffffffffffffffffffffffff166000547fb9c954b64c637fb078d098a968736823712d8b9f503d52923b779a3638d4b3a1888787604051610b5493929190612a85565b60405180910390a45050505050565b60036020528160005260406000208181548110610b7f57600080fd5b90600052602060002001600091509150505481565b60046020528160005260406000208181548110610bb057600080fd5b90600052602060002001600091509150505481565b610bcd611bb8565b600160008381526020019081526020016000206040518061018001604052908160008201548152602001600182018054610c069061255c565b80601f0160208091040260200160405190810160405280929190818152602001828054610c329061255c565b8015610c7f5780601f10610c5457610100808354040283529160200191610c7f565b820191906000526020600020905b815481529060010190602001808311610c6257829003601f168201915b505050505081526020016002820160009054906101000a900473ffffffffffffffffffffffffffffffffffffffff1673ffffffffffffffffffffffffffffffffffffffff1673ffffffffffffffffffffffffffffffffffffffff1681526020016003820160009054906101000a900473ffffffffffffffffffffffffffffffffffffffff1673ffffffffffffffffffffffffffffffffffffffff1673ffffffffffffffffffffffffffffffffffffffff168152602001600482015481526020016005820154815260200160068201548152602001600782018054610d629061255c565b80601f0160208091040260200160405190810160405280929190818152602001828054610d8e9061255c565b8015610ddb5780601f10610db057610100808354040283529160200191610ddb565b820191906000526020600020905b815481529060010190602001808311610dbe57829003601f168201915b505050505081526020016008820160009054906101000a900460ff161515151581526020016008820160019054906101000a900460ff1615151515815260200160098201548152602001600a820154815250509050919050565b6002818051602081018201805184825260208301602085012081835280955050505050506000915090505481565b6001602052806000526040600020600091509050806000015490806001018054610e8c9061255c565b80601f0160208091040260200160405190810160405280929190818152602001828054610eb89061255c565b8015610f055780601f10610eda57610100808354040283529160200191610f05565b820191906000526020600020905b815481529060010190602001808311610ee857829003601f168201915b5050505050908060020160009054906101000a900473ffffffffffffffffffffffffffffffffffffffff16908060030160009054906101000a900473ffffffffffffffffffffffffffffffffffffffff1690806004015490806005015490806006015490806007018054610f789061255c565b80601f0160208091040260200160405190810160405280929190818152602001828054610fa49061255c565b8015610ff15780601f10610fc657610100808354040283529160200191610ff1565b820191906000526020600020905b815481529060010190602001808311610fd457829003601f168201915b5050505050908060080160009054906101000a900460ff16908060080160019054906101000a900460ff169080600901549080600a015490508c565b6000600160008381526020019081526020016000209050600081600001540361108b576040517f08c379a000000000000000000000000000000000000000000000000000000000815260040161108290612b0f565b60405180910390fd5b8060030160009054906101000a900473ffffffffffffffffffffffffffffffffffffffff1673ffffffffffffffffffffffffffffffffffffffff163373ffffffffffffffffffffffffffffffffffffffff161461111d576040517f08c379a000000000000000000000000000000000000000000000000000000000815260040161111490612b7b565b60405180910390fd5b600081600a015482600901546111339190612b9b565b905060008111611178576040517f08c379a000000000000000000000000000000000000000000000000000000000815260040161116f90612c1b565b60405180910390fd5b8082600a01600082825461118c9190612c3b565b9250508190555060008260020160009054906101000a900473ffffffffffffffffffffffffffffffffffffffff1673ffffffffffffffffffffffffffffffffffffffff16826040516111dd90612ca0565b60006040518083038185875af1925050503d806000811461121a576040519150601f19603f3d011682016040523d82523d6000602084013e61121f565b606091505b5050905080611263576040517f08c379a000000000000000000000000000000000000000000000000000000000815260040161125a90612d01565b60405180910390fd5b8260020160009054906101000a900473ffffffffffffffffffffffffffffffffffffffff1673ffffffffffffffffffffffffffffffffffffffff16847f6e3c6096795c8298a218b2cfb8bde42726ff7c9a3d27b4d3ba41ab7f74feb5fb846040516112ce9190611c62565b60405180910390a350505050565b60606000600460003373ffffffffffffffffffffffffffffffffffffffff1673ffffffffffffffffffffffffffffffffffffffff16815260200190815260200160002080548060200260200160405190810160405280929190818152602001828054801561136957602002820191906000526020600020905b815481526020019060010190808311611355575b505050505090506000815167ffffffffffffffff81111561138d5761138c611fa6565b5b6040519080825280602002602001820160405280156113c657816020015b6113b3611bb8565b8152602001906001900390816113ab5790505b50905060005b825181101561168157600160008483815181106113ec576113eb6124fe565b5b6020026020010151815260200190815260200160002060405180610180016040529081600082015481526020016001820180546114289061255c565b80601f01602080910402602001604051908101604052809291908181526020018280546114549061255c565b80156114a15780601f10611476576101008083540402835291602001916114a1565b820191906000526020600020905b81548152906001019060200180831161148457829003601f168201915b505050505081526020016002820160009054906101000a900473ffffffffffffffffffffffffffffffffffffffff1673ffffffffffffffffffffffffffffffffffffffff1673ffffffffffffffffffffffffffffffffffffffff1681526020016003820160009054906101000a900473ffffffffffffffffffffffffffffffffffffffff1673ffffffffffffffffffffffffffffffffffffffff1673ffffffffffffffffffffffffffffffffffffffff1681526020016004820154815260200160058201548152602001600682015481526020016007820180546115849061255c565b80601f01602080910402602001604051908101604052809291908181526020018280546115b09061255c565b80156115fd5780601f106115d2576101008083540402835291602001916115fd565b820191906000526020600020905b8154815290600101906020018083116115e057829003601f168201915b505050505081526020016008820160009054906101000a900460ff161515151581526020016008820160019054906101000a900460ff1615151515815260200160098201548152602001600a82015481525050828281518110611663576116626124fe565b5b60200260200101819052508080611679906125bc565b9150506113cc565b50809250505090565b600060016000838152602001908152602001600020905060008160000154036116e8576040517f08c379a00000000000000000000000000000000000000000000000000000000081526004016116df90612b0f565b60405180910390fd5b8060080160009054906101000a900460ff161561173a576040517f08c379a000000000000000000000000000000000000000000000000000000000815260040161173190612d6d565b60405180910390fd5b8060080160019054906101000a900460ff161561178c576040517f08c379a000000000000000000000000000000000000000000000000000000000815260040161178390612dd9565b60405180910390fd5b600034116117cf576040517f08c379a00000000000000000000000000000000000000000000000000000000081526004016117c690612e6b565b60405180910390fd5b80600401543482600901546117e49190612c3b565b1115611825576040517f08c379a000000000000000000000000000000000000000000000000000000000815260040161181c90612ed7565b60405180910390fd5b348160090160008282546118399190612c3b565b92505081905550806004015481600901541061186d5760018160080160006101000a81548160ff0219169083151502179055505b3373ffffffffffffffffffffffffffffffffffffffff16827f1ccb44f7994f1a3d2e759376c53231768e4c9cd9b230ad05d26d158cf6ac66cf3484600901546040516118ba929190612ef7565b60405180910390a35050565b60006001600083815260200190815260200160002090506000816000015403611924576040517f08c379a000000000000000000000000000000000000000000000000000000000815260040161191b90612b0f565b60405180910390fd5b8060020160009054906101000a900473ffffffffffffffffffffffffffffffffffffffff1673ffffffffffffffffffffffffffffffffffffffff163373ffffffffffffffffffffffffffffffffffffffff16146119b6576040517f08c379a00000000000000000000000000000000000000000000000000000000081526004016119ad90612f6c565b60405180910390fd5b8060080160009054906101000a900460ff1615611a08576040517f08c379a00000000000000000000000000000000000000000000000000000000081526004016119ff90612fd8565b60405180910390fd5b8060080160019054906101000a900460ff1615611a5a576040517f08c379a0000000000000000000000000000000000000000000000000000000008152600401611a5190613044565b60405180910390fd5b60018160080160016101000a81548160ff021916908315150217905550600081600901541115611b7957600081600a01548260090154611a9a9190612b9b565b90506000811115611b775760008260030160009054906101000a900473ffffffffffffffffffffffffffffffffffffffff1673ffffffffffffffffffffffffffffffffffffffff1682604051611aef90612ca0565b60006040518083038185875af1925050503d8060008114611b2c576040519150601f19603f3d011682016040523d82523d6000602084013e611b31565b606091505b5050905080611b75576040517f08c379a0000000000000000000000000000000000000000000000000000000008152600401611b6c906130b0565b60405180910390fd5b505b505b817fcd25ab8c3ec2731c81120b0f6206453bd5b52954eb4e795c271397ea2480a41f82600101604051611bac9190613154565b60405180910390a25050565b6040518061018001604052806000815260200160608152602001600073ffffffffffffffffffffffffffffffffffffffff168152602001600073ffffffffffffffffffffffffffffffffffffffff1681526020016000815260200160008152602001600081526020016060815260200160001515815260200160001515815260200160008152602001600081525090565b6000819050919050565b611c5c81611c49565b82525050565b6000602082019050611c776000830184611c53565b92915050565b600081519050919050565b600082825260208201905092915050565b6000819050602082019050919050565b611cb281611c49565b82525050565b600081519050919050565b600082825260208201905092915050565b60005b83811015611cf2578082015181840152602081019050611cd7565b60008484015250505050565b6000601f19601f8301169050919050565b6000611d1a82611cb8565b611d248185611cc3565b9350611d34818560208601611cd4565b611d3d81611cfe565b840191505092915050565b600073ffffffffffffffffffffffffffffffffffffffff82169050919050565b6000611d7382611d48565b9050919050565b611d8381611d68565b82525050565b6000611d9482611d48565b9050919050565b611da481611d89565b82525050565b60008115159050919050565b611dbf81611daa565b82525050565b600061018083016000830151611dde6000860182611ca9565b5060208301518482036020860152611df68282611d0f565b9150506040830151611e0b6040860182611d7a565b506060830151611e1e6060860182611d9b565b506080830151611e316080860182611ca9565b5060a0830151611e4460a0860182611ca9565b5060c0830151611e5760c0860182611ca9565b5060e083015184820360e0860152611e6f8282611d0f565b915050610100830151611e86610100860182611db6565b50610120830151611e9b610120860182611db6565b50610140830151611eb0610140860182611ca9565b50610160830151611ec5610160860182611ca9565b508091505092915050565b6000611edc8383611dc5565b905092915050565b6000602082019050919050565b6000611efc82611c7d565b611f068185611c88565b935083602082028501611f1885611c99565b8060005b85811015611f545784840389528151611f358582611ed0565b9450611f4083611ee4565b925060208a01995050600181019050611f1c565b50829750879550505050505092915050565b60006020820190508181036000830152611f808184611ef1565b905092915050565b6000604051905090565b600080fd5b600080fd5b600080fd5b600080fd5b7f4e487b7100000000000000000000000000000000000000000000000000000000600052604160045260246000fd5b611fde82611cfe565b810181811067ffffffffffffffff82111715611ffd57611ffc611fa6565b5b80604052505050565b6000612010611f88565b905061201c8282611fd5565b919050565b600067ffffffffffffffff82111561203c5761203b611fa6565b5b61204582611cfe565b9050602081019050919050565b82818337600083830152505050565b600061207461206f84612021565b612006565b9050828152602081018484840111156120905761208f611fa1565b5b61209b848285612052565b509392505050565b600082601f8301126120b8576120b7611f9c565b5b81356120c8848260208601612061565b91505092915050565b6120da81611d89565b81146120e557600080fd5b50565b6000813590506120f7816120d1565b92915050565b61210681611c49565b811461211157600080fd5b50565b600081359050612123816120fd565b92915050565b600080600080600060a0868803121561214557612144611f92565b5b600086013567ffffffffffffffff81111561216357612162611f97565b5b61216f888289016120a3565b9550506020612180888289016120e8565b945050604061219188828901612114565b93505060606121a288828901612114565b925050608086013567ffffffffffffffff8111156121c3576121c2611f97565b5b6121cf888289016120a3565b9150509295509295909350565b600080604083850312156121f3576121f2611f92565b5b6000612201858286016120e8565b925050602061221285828601612114565b9150509250929050565b60006020828403121561223257612231611f92565b5b600061224084828501612114565b91505092915050565b6000610180830160008301516122626000860182611ca9565b506020830151848203602086015261227a8282611d0f565b915050604083015161228f6040860182611d7a565b5060608301516122a26060860182611d9b565b5060808301516122b56080860182611ca9565b5060a08301516122c860a0860182611ca9565b5060c08301516122db60c0860182611ca9565b5060e083015184820360e08601526122f38282611d0f565b91505061010083015161230a610100860182611db6565b5061012083015161231f610120860182611db6565b50610140830151612334610140860182611ca9565b50610160830151612349610160860182611ca9565b508091505092915050565b6000602082019050818103600083015261236e8184612249565b905092915050565b60006020828403121561238c5761238b611f92565b5b600082013567ffffffffffffffff8111156123aa576123a9611f97565b5b6123b6848285016120a3565b91505092915050565b600082825260208201905092915050565b60006123db82611cb8565b6123e581856123bf565b93506123f5818560208601611cd4565b6123fe81611cfe565b840191505092915050565b61241281611d68565b82525050565b61242181611d89565b82525050565b61243081611daa565b82525050565b60006101808201905061244c600083018f611c53565b818103602083015261245e818e6123d0565b905061246d604083018d612409565b61247a606083018c612418565b612487608083018b611c53565b61249460a083018a611c53565b6124a160c0830189611c53565b81810360e08301526124b381886123d0565b90506124c3610100830187612427565b6124d1610120830186612427565b6124df610140830185611c53565b6124ed610160830184611c53565b9d9c50505050505050505050505050565b7f4e487b7100000000000000000000000000000000000000000000000000000000600052603260045260246000fd5b7f4e487b7100000000000000000000000000000000000000000000000000000000600052602260045260246000fd5b6000600282049050600182168061257457607f821691505b6020821081036125875761258661252d565b5b50919050565b7f4e487b7100000000000000000000000000000000000000000000000000000000600052601160045260246000fd5b60006125c782611c49565b91507fffffffffffffffffffffffffffffffffffffffffffffffffffffffffffffffff82036125f9576125f861258d565b5b600182019050919050565b7f416d6f756e74206d7573742062652067726561746572207468616e2030000000600082015250565b600061263a601d836123bf565b915061264582612604565b602082019050919050565b600060208201905081810360008301526126698161262d565b9050919050565b7f496e76616c696420627579657220616464726573730000000000000000000000600082015250565b60006126a66015836123bf565b91506126b182612670565b602082019050919050565b600060208201905081810360008301526126d581612699565b9050919050565b7f496e766f696365206e756d626572206973207265717569726564000000000000600082015250565b6000612712601a836123bf565b915061271d826126dc565b602082019050919050565b6000602082019050818103600083015261274181612705565b9050919050565b600081905092915050565b600061275e82611cb8565b6127688185612748565b9350612778818560208601611cd4565b80840191505092915050565b60006127908284612753565b915081905092915050565b7f496e766f696365206e756d62657220616c726561647920657869737473000000600082015250565b60006127d1601d836123bf565b91506127dc8261279b565b602082019050919050565b60006020820190508181036000830152612800816127c4565b9050919050565b60008190508160005260206000209050919050565b60006020601f8301049050919050565b600082821b905092915050565b6000600883026128697fffffffffffffffffffffffffffffffffffffffffffffffffffffffffffffffff8261282c565b612873868361282c565b95508019841693508086168417925050509392505050565b6000819050919050565b60006128b06128ab6128a684611c49565b61288b565b611c49565b9050919050565b6000819050919050565b6128ca83612895565b6128de6128d6826128b7565b848454612839565b825550505050565b600090565b6128f36128e6565b6128fe8184846128c1565b505050565b5b81811015612922576129176000826128eb565b600181019050612904565b5050565b601f8211156129675761293881612807565b6129418461281c565b81016020851015612950578190505b61296461295c8561281c565b830182612903565b50505b505050565b600082821c905092915050565b600061298a6000198460080261296c565b1980831691505092915050565b60006129a38383612979565b9150826002028217905092915050565b6129bc82611cb8565b67ffffffffffffffff8111156129d5576129d4611fa6565b5b6129df825461255c565b6129ea828285612926565b600060209050601f831160018114612a1d5760008415612a0b578287015190505b612a158582612997565b865550612a7d565b601f198416612a2b86612807565b60005b82811015612a5357848901518255600182019150602085019450602081019050612a2e565b86831015612a705784890151612a6c601f891682612979565b8355505b6001600288020188555050505b505050505050565b60006060820190508181036000830152612a9f81866123d0565b9050612aae6020830185611c53565b612abb6040830184611c53565b949350505050565b7f496e766f69636520646f6573206e6f7420657869737400000000000000000000600082015250565b6000612af96016836123bf565b9150612b0482612ac3565b602082019050919050565b60006020820190508181036000830152612b2881612aec565b9050919050565b7f4f6e6c792062757965722063616e20636f6e6669726d20726563656970740000600082015250565b6000612b65601e836123bf565b9150612b7082612b2f565b602082019050919050565b60006020820190508181036000830152612b9481612b58565b9050919050565b6000612ba682611c49565b9150612bb183611c49565b9250828203905081811115612bc957612bc861258d565b5b92915050565b7f4e6f2066756e647320746f2072656c6561736500000000000000000000000000600082015250565b6000612c056013836123bf565b9150612c1082612bcf565b602082019050919050565b60006020820190508181036000830152612c3481612bf8565b9050919050565b6000612c4682611c49565b9150612c5183611c49565b9250828201905080821115612c6957612c6861258d565b5b92915050565b600081905092915050565b50565b6000612c8a600083612c6f565b9150612c9582612c7a565b600082019050919050565b6000612cab82612c7d565b9150819050919050565b7f5472616e7366657220746f20737570706c696572206661696c65640000000000600082015250565b6000612ceb601b836123bf565b9150612cf682612cb5565b602082019050919050565b60006020820190508181036000830152612d1a81612cde565b9050919050565b7f496e766f69636520697320616c72656164792066756c6c792070616964000000600082015250565b6000612d57601d836123bf565b9150612d6282612d21565b602082019050919050565b60006020820190508181036000830152612d8681612d4a565b9050919050565b7f496e766f6963652069732063616e63656c6c6564000000000000000000000000600082015250565b6000612dc36014836123bf565b9150612dce82612d8d565b602082019050919050565b60006020820190508181036000830152612df281612db6565b9050919050565b7f5061796d656e7420616d6f756e74206d7573742062652067726561746572207460008201527f68616e2030000000000000000000000000000000000000000000000000000000602082015250565b6000612e556025836123bf565b9150612e6082612df9565b604082019050919050565b60006020820190508181036000830152612e8481612e48565b9050919050565b7f5061796d656e7420657863656564732072656d61696e696e6720616d6f756e74600082015250565b6000612ec16020836123bf565b9150612ecc82612e8b565b602082019050919050565b60006020820190508181036000830152612ef081612eb4565b9050919050565b6000604082019050612f0c6000830185611c53565b612f196020830184611c53565b9392505050565b7f4f6e6c7920737570706c6965722063616e2063616e63656c0000000000000000600082015250565b6000612f566018836123bf565b9150612f6182612f20565b602082019050919050565b60006020820190508181036000830152612f8581612f49565b9050919050565b7f43616e6e6f742063616e63656c2066756c6c79207061696420696e766f696365600082015250565b6000612fc26020836123bf565b9150612fcd82612f8c565b602082019050919050565b60006020820190508181036000830152612ff181612fb5565b9050919050565b7f496e766f69636520697320616c72656164792063616e63656c6c656400000000600082015250565b600061302e601c836123bf565b915061303982612ff8565b602082019050919050565b6000602082019050818103600083015261305d81613021565b9050919050565b7f526566756e6420746f206275796572206661696c656400000000000000000000600082015250565b600061309a6016836123bf565b91506130a582613064565b602082019050919050565b600060208201905081810360008301526130c98161308d565b9050919050565b600081546130dd8161255c565b6130e781866123bf565b9450600182166000811461310257600181146131185761314b565b60ff19831686528115156020028601935061314b565b61312185612807565b60005b8381101561314357815481890152600182019150602081019050613124565b808801955050505b50505092915050565b6000602082019050818103600083015261316e81846130d0565b90509291505056fea2646970667358221220bfebe9f50057bcb2de1848f4fe27f88c1e49d9908883227c50a4d0d5c44bdce864736f6c63430008140033",
  "linkReferences": {},
  "deployedLinkReferences": {}
}