{
  "_format": "hh-sol-artifact-1",
  "contractName": "SatsProcure",
  "sourceName": "contracts/SatsProcure.sol",
  "abi": [
    {
      "anonymous": false,
      "inputs": [
        {
          "indexed": true,
          "internalType": "uint256",
          "name": "id",
          "type": "uint256"
        },
        {
          "indexed": false,
          "internalType": "string",
          "name": "invoiceNumber",
          "type": "string"
        }
      ],
      "name": "InvoiceCancelled",
      "type": "event"
    },
    {
      "anonymous": false,
      "inputs": [
        {
          "indexed": true,
          "internalType": "uint256",
          "name": "id",
          "type": "uint256"
        },
        {
          "indexed": false,
          "internalType": "string",
          "name": "invoiceNumber",
          "type": "string"
        },
        {
          "indexed": true,
          "internalType": "address",
          "name": "supplier",
          "type": "address"
        },
        {
          "indexed": true,
          "internalType": "address",
          "name": "buyer",
          "type": "address"
        },
        {
          "indexed": false,
          "internalType": "uint256",
          "name": "amount",
          "type": "uint256"
        },
        {
          "indexed": false,
          "internalType": "uint256",
          "name": "dueDate",
          "type": "uint256"
        }
      ],
      "name": "InvoiceCreated",
      "type": "event"
    },
    {
      "anonymous": false,
      "inputs": [
        {
          "indexed": true,
          "internalType": "uint256",
          "name": "id",
          "type": "uint256"
        },
        {
          "indexed": false,
          "internalType": "string",
          "name": "invoiceNumber",
          "type": "string"
        },
        {
          "indexed": true,
          "internalType": "address",
          "name": "payer",
          "type": "address"
        },
        {
          "indexed": false,
          "internalType": "uint256",
          "name": "amount",
          "type": "uint256"
        },
        {
          "indexed": false,
          "internalType": "uint256",
          "name": "paidAt",
          "type": "uint256"
        }
      ],
      "name": "InvoicePaid",
      "type": "event"
    },
    {
      "inputs": [
        {
          "internalType": "address",
          "name": "",
          "type": "address"
        },
        {
          "internalType": "uint256",
          "name": "",
          "type": "uint256"
        }
      ],
      "name": "buyerInvoices",
      "outputs": [
        {
          "internalType": "uint256",
          "name": "",
          "type": "uint256"
        }
      ],
      "stateMutability": "view",
      "type": "function"
    },
    {
      "inputs": [
        {
          "internalType": "uint256",
          "name": "_id",
          "type": "uint256"
        }
      ],
      "name": "cancelInvoice",
      "outputs": [],
      "stateMutability": "nonpayable",
      "type": "function"
    },
    {
      "inputs": [
        {
          "internalType": "string",
          "name": "_invoiceNumber",
          "type": "string"
        },
        {
          "internalType": "address",
          "name": "_buyer",
          "type": "address"
        },
        {
          "internalType": "uint256",
          "name": "_amount",
          "type": "uint256"
        },
        {
          "internalType": "uint256",
          "name": "_dueDate",
          "type": "uint256"
        },
        {
          "internalType": "string",
          "name": "_notes",
          "type": "string"
        }
      ],
      "name": "createInvoice",
      "outputs": [],
      "stateMutability": "nonpayable",
      "type": "function"
    },
    {
      "inputs": [
        {
          "internalType": "uint256",
          "name": "_id",
          "type": "uint256"
        }
      ],
      "name": "getInvoice",
      "outputs": [
        {
          "components": [
            {
              "internalType": "uint256",
              "name": "id",
              "type": "uint256"
            },
            {
              "internalType": "string",
              "name": "invoiceNumber",
              "type": "string"
            },
            {
              "internalType": "address payable",
              "name": "supplier",
              "type": "address"
            },
            {
              "internalType": "address",
              "name": "buyer",
              "type": "address"
            },
            {
              "internalType": "uint256",
              "name": "amount",
              "type": "uint256"
            },
            {
              "internalType": "uint256",
              "name": "createdAt",
              "type": "uint256"
            },
            {
              "internalType": "uint256",
              "name": "dueDate",
              "type": "uint256"
            },
            {
              "internalType": "string",
              "name": "notes",
              "type": "string"
            },
            {
              "internalType": "bool",
              "name": "isPaid",
              "type": "bool"
            },
            {
              "internalType": "bool",
              "name": "isCancelled",
              "type": "bool"
            }
          ],
          "internalType": "struct SatsProcure.Invoice",
          "name": "",
          "type": "tuple"
        }
      ],
      "stateMutability": "view",
      "type": "function"
    },
    {
      "inputs": [],
      "name": "getMyBuyerInvoices",
      "outputs": [
        {
          "components": [
            {
              "internalType": "uint256",
              "name": "id",
              "type": "uint256"
            },
            {
              "internalType": "string",
              "name": "invoiceNumber",
              "type": "string"
            },
            {
              "internalType": "address payable",
              "name": "supplier",
              "type": "address"
            },
            {
              "internalType": "address",
              "name": "buyer",
              "type": "address"
            },
            {
              "internalType": "uint256",
              "name": "amount",
              "type": "uint256"
            },
            {
              "internalType": "uint256",
              "name": "createdAt",
              "type": "uint256"
            },
            {
              "internalType": "uint256",
              "name": "dueDate",
              "type": "uint256"
            },
            {
              "internalType": "string",
              "name": "notes",
              "type": "string"
            },
            {
              "internalType": "bool",
              "name": "isPaid",
              "type": "bool"
            },
            {
              "internalType": "bool",
              "name": "isCancelled",
              "type": "bool"
            }
          ],
          "internalType": "struct SatsProcure.Invoice[]",
          "name": "",
          "type": "tuple[]"
        }
      ],
      "stateMutability": "view",
      "type": "function"
    },
    {
      "inputs": [],
      "name": "getMySupplierInvoices",
      "outputs": [
        {
          "components": [
            {
              "internalType": "uint256",
              "name": "id",
              "type": "uint256"
            },
            {
              "internalType": "string",
              "name": "invoiceNumber",
              "type": "string"
            },
            {
              "internalType": "address payable",
              "name": "supplier",
              "type": "address"
            },
            {
              "internalType": "address",
              "name": "buyer",
              "type": "address"
            },
            {
              "internalType": "uint256",
              "name": "amount",
              "type": "uint256"
            },
            {
              "internalType": "uint256",
              "name": "createdAt",
              "type": "uint256"
            },
            {
              "internalType": "uint256",
              "name": "dueDate",
              "type": "uint256"
            },
            {
              "internalType": "string",
              "name": "notes",
              "type": "string"
            },
            {
              "internalType": "bool",
              "name": "isPaid",
              "type": "bool"
            },
            {
              "internalType": "bool",
              "name": "isCancelled",
              "type": "bool"
            }
          ],
          "internalType": "struct SatsProcure.Invoice[]",
          "name": "",
          "type": "tuple[]"
        }
      ],
      "stateMutability": "view",
      "type": "function"
    },
    {
      "inputs": [],
      "name": "invoiceCount",
      "outputs": [
        {
          "internalType": "uint256",
          "name": "",
          "type": "uint256"
        }
      ],
      "stateMutability": "view",
      "type": "function"
    },
    {
      "inputs": [
        {
          "internalType": "string",
          "name": "",
          "type": "string"
        }
      ],
      "name": "invoiceNumberToId",
      "outputs": [
        {
          "internalType": "uint256",
          "name": "",
          "type": "uint256"
        }
      ],
      "stateMutability": "view",
      "type": "function"
    },
    {
      "inputs": [
        {
          "internalType": "uint256",
          "name": "",
          "type": "uint256"
        }
      ],
      "name": "invoices",
      "outputs": [
        {
          "internalType": "uint256",
          "name": "id",
          "type": "uint256"
        },
        {
          "internalType": "string",
          "name": "invoiceNumber",
          "type": "string"
        },
        {
          "internalType": "address payable",
          "name": "supplier",
          "type": "address"
        },
        {
          "internalType": "address",
          "name": "buyer",
          "type": "address"
        },
        {
          "internalType": "uint256",
          "name": "amount",
          "type": "uint256"
        },
        {
          "internalType": "uint256",
          "name": "createdAt",
          "type": "uint256"
        },
        {
          "internalType": "uint256",
          "name": "dueDate",
          "type": "uint256"
        },
        {
          "internalType": "string",
          "name": "notes",
          "type": "string"
        },
        {
          "internalType": "bool",
          "name": "isPaid",
          "type": "bool"
        },
        {
          "internalType": "bool",
          "name": "isCancelled",
          "type": "bool"
        }
      ],
      "stateMutability": "view",
      "type": "function"
    },
    {
      "inputs": [
        {
          "internalType": "uint256",
          "name": "_id",
          "type": "uint256"
        }
      ],
      "name": "payInvoice",
      "outputs": [],
      "stateMutability": "payable",
      "type": "function"
    },
    {
      "inputs": [
        {
          "internalType": "address",
          "name": "",
          "type": "address"
        },
        {
          "internalType": "uint256",
          "name": "",
          "type": "uint256"
        }
      ],
      "name": "supplierInvoices",
      "outputs": [
        {
          "internalType": "uint256",
          "name": "",
          "type": "uint256"
        }
      ],
      "stateMutability": "view",
      "type": "function"
    }
  ],
  "bytecode": "0x608060405234801561001057600080fd5b50612b04806100206000396000f3fe60806040526004361061009c5760003560e01c80633a23cc0a116100645780633a23cc0a1461019a57806342c9813e146101d75780634e6d14051461021457806386e17bbe1461025a578063ac60a6cd14610285578063da9c273d146102a15761009c565b80631346f0c4146100a15780631810d8c6146100cc578063196362ab146100f7578063285c8eac1461012057806335c3c1e11461015d575b600080fd5b3480156100ad57600080fd5b506100b66102ca565b6040516100c39190611855565b60405180910390f35b3480156100d857600080fd5b506100e16102d0565b6040516100ee9190611b2f565b60405180910390f35b34801561010357600080fd5b5061011e60048036038101906101199190611cf2565b61066a565b005b34801561012c57600080fd5b5061014760048036038101906101429190611da5565b610af5565b6040516101549190611855565b60405180910390f35b34801561016957600080fd5b50610184600480360381019061017f9190611da5565b610b26565b6040516101919190611855565b60405180910390f35b3480156101a657600080fd5b506101c160048036038101906101bc9190611de5565b610b57565b6040516101ce9190611ef3565b60405180910390f35b3480156101e357600080fd5b506101fe60048036038101906101f99190611f15565b610db3565b60405161020b9190611855565b60405180910390f35b34801561022057600080fd5b5061023b60048036038101906102369190611de5565b610de1565b6040516102519a99989796959493929190611fd5565b60405180910390f35b34801561026657600080fd5b5061026f610f9f565b60405161027c9190611b2f565b60405180910390f35b61029f600480360381019061029a9190611de5565b611339565b005b3480156102ad57600080fd5b506102c860048036038101906102c39190611de5565b6115c9565b005b60005481565b60606000600360003373ffffffffffffffffffffffffffffffffffffffff1673ffffffffffffffffffffffffffffffffffffffff16815260200190815260200160002080548060200260200160405190810160405280929190818152602001828054801561035d57602002820191906000526020600020905b815481526020019060010190808311610349575b505050505090506000815167ffffffffffffffff81111561038157610380611b6f565b5b6040519080825280602002602001820160405280156103ba57816020015b6103a76117b9565b81526020019060019003908161039f5790505b50905060005b825181101561066157600160008483815181106103e0576103df61207f565b5b60200260200101518152602001908152602001600020604051806101400160405290816000820154815260200160018201805461041c906120dd565b80601f0160208091040260200160405190810160405280929190818152602001828054610448906120dd565b80156104955780601f1061046a57610100808354040283529160200191610495565b820191906000526020600020905b81548152906001019060200180831161047857829003601f168201915b505050505081526020016002820160009054906101000a900473ffffffffffffffffffffffffffffffffffffffff1673ffffffffffffffffffffffffffffffffffffffff1673ffffffffffffffffffffffffffffffffffffffff1681526020016003820160009054906101000a900473ffffffffffffffffffffffffffffffffffffffff1673ffffffffffffffffffffffffffffffffffffffff1673ffffffffffffffffffffffffffffffffffffffff168152602001600482015481526020016005820154815260200160068201548152602001600782018054610578906120dd565b80601f01602080910402602001604051908101604052809291908181526020018280546105a4906120dd565b80156105f15780601f106105c6576101008083540402835291602001916105f1565b820191906000526020600020905b8154815290600101906020018083116105d457829003601f168201915b505050505081526020016008820160009054906101000a900460ff161515151581526020016008820160019054906101000a900460ff1615151515815250508282815181106106435761064261207f565b5b602002602001018190525080806106599061213d565b9150506103c0565b50809250505090565b600083116106ad576040517f08c379a00000000000000000000000000000000000000000000000000000000081526004016106a4906121d1565b60405180910390fd5b600073ffffffffffffffffffffffffffffffffffffffff168473ffffffffffffffffffffffffffffffffffffffff160361071c576040517f08c379a00000000000000000000000000000000000000000000000000000000081526004016107139061223d565b60405180910390fd5b6000855111610760576040517f08c379a0000000000000000000000000000000000000000000000000000000008152600401610757906122a9565b60405180910390fd5b60006002866040516107729190612305565b908152602001604051809103902054146107c1576040517f08c379a00000000000000000000000000000000000000000000000000000000081526004016107b890612368565b60405180910390fd5b6000808154809291906107d39061213d565b919050555060405180610140016040528060005481526020018681526020013373ffffffffffffffffffffffffffffffffffffffff1681526020018573ffffffffffffffffffffffffffffffffffffffff1681526020018481526020014281526020018381526020018281526020016000151581526020016000151581525060016000805481526020019081526020016000206000820151816000015560208201518160010190816108859190612534565b5060408201518160020160006101000a81548173ffffffffffffffffffffffffffffffffffffffff021916908373ffffffffffffffffffffffffffffffffffffffff16021790555060608201518160030160006101000a81548173ffffffffffffffffffffffffffffffffffffffff021916908373ffffffffffffffffffffffffffffffffffffffff1602179055506080820151816004015560a0820151816005015560c0820151816006015560e08201518160070190816109479190612534565b506101008201518160080160006101000a81548160ff0219169083151502179055506101208201518160080160016101000a81548160ff0219169083151502179055509050506000546002866040516109a09190612305565b908152602001604051809103902081905550600360003373ffffffffffffffffffffffffffffffffffffffff1673ffffffffffffffffffffffffffffffffffffffff1681526020019081526020016000206000549080600181540180825580915050600190039060005260206000200160009091909190915055600460008573ffffffffffffffffffffffffffffffffffffffff1673ffffffffffffffffffffffffffffffffffffffff16815260200190815260200160002060005490806001815401808255809150506001900390600052602060002001600090919091909150558373ffffffffffffffffffffffffffffffffffffffff163373ffffffffffffffffffffffffffffffffffffffff166000547fb9c954b64c637fb078d098a968736823712d8b9f503d52923b779a3638d4b3a1888787604051610ae693929190612606565b60405180910390a45050505050565b60036020528160005260406000208181548110610b1157600080fd5b90600052602060002001600091509150505481565b60046020528160005260406000208181548110610b4257600080fd5b90600052602060002001600091509150505481565b610b5f6117b9565b600160008381526020019081526020016000206040518061014001604052908160008201548152602001600182018054610b98906120dd565b80601f0160208091040260200160405190810160405280929190818152602001828054610bc4906120dd565b8015610c115780601f10610be657610100808354040283529160200191610c11565b820191906000526020600020905b815481529060010190602001808311610bf457829003601f168201915b505050505081526020016002820160009054906101000a900473ffffffffffffffffffffffffffffffffffffffff1673ffffffffffffffffffffffffffffffffffffffff1673ffffffffffffffffffffffffffffffffffffffff1681526020016003820160009054906101000a900473ffffffffffffffffffffffffffffffffffffffff1673ffffffffffffffffffffffffffffffffffffffff1673ffffffffffffffffffffffffffffffffffffffff168152602001600482015481526020016005820154815260200160068201548152602001600782018054610cf4906120dd565b80601f0160208091040260200160405190810160405280929190818152602001828054610d20906120dd565b8015610d6d5780601f10610d4257610100808354040283529160200191610d6d565b820191906000526020600020905b815481529060010190602001808311610d5057829003601f168201915b505050505081526020016008820160009054906101000a900460ff161515151581526020016008820160019054906101000a900460ff1615151515815250509050919050565b6002818051602081018201805184825260208301602085012081835280955050505050506000915090505481565b6001602052806000526040600020600091509050806000015490806001018054610e0a906120dd565b80601f0160208091040260200160405190810160405280929190818152602001828054610e36906120dd565b8015610e835780601f10610e5857610100808354040283529160200191610e83565b820191906000526020600020905b815481529060010190602001808311610e6657829003601f168201915b5050505050908060020160009054906101000a900473ffffffffffffffffffffffffffffffffffffffff16908060030160009054906101000a900473ffffffffffffffffffffffffffffffffffffffff1690806004015490806005015490806006015490806007018054610ef6906120dd565b80601f0160208091040260200160405190810160405280929190818152602001828054610f22906120dd565b8015610f6f5780601f10610f4457610100808354040283529160200191610f6f565b820191906000526020600020905b815481529060010190602001808311610f5257829003601f168201915b5050505050908060080160009054906101000a900460ff16908060080160019054906101000a900460ff1690508a565b60606000600460003373ffffffffffffffffffffffffffffffffffffffff1673ffffffffffffffffffffffffffffffffffffffff16815260200190815260200160002080548060200260200160405190810160405280929190818152602001828054801561102c57602002820191906000526020600020905b815481526020019060010190808311611018575b505050505090506000815167ffffffffffffffff8111156110505761104f611b6f565b5b60405190808252806020026020018201604052801561108957816020015b6110766117b9565b81526020019060019003908161106e5790505b50905060005b825181101561133057600160008483815181106110af576110ae61207f565b5b6020026020010151815260200190815260200160002060405180610140016040529081600082015481526020016001820180546110eb906120dd565b80601f0160208091040260200160405190810160405280929190818152602001828054611117906120dd565b80156111645780601f1061113957610100808354040283529160200191611164565b820191906000526020600020905b81548152906001019060200180831161114757829003601f168201915b505050505081526020016002820160009054906101000a900473ffffffffffffffffffffffffffffffffffffffff1673ffffffffffffffffffffffffffffffffffffffff1673ffffffffffffffffffffffffffffffffffffffff1681526020016003820160009054906101000a900473ffffffffffffffffffffffffffffffffffffffff1673ffffffffffffffffffffffffffffffffffffffff1673ffffffffffffffffffffffffffffffffffffffff168152602001600482015481526020016005820154815260200160068201548152602001600782018054611247906120dd565b80601f0160208091040260200160405190810160405280929190818152602001828054611273906120dd565b80156112c05780601f10611295576101008083540402835291602001916112c0565b820191906000526020600020905b8154815290600101906020018083116112a357829003601f168201915b505050505081526020016008820160009054906101000a900460ff161515151581526020016008820160019054906101000a900460ff1615151515815250508282815181106113125761131161207f565b5b602002602001018190525080806113289061213d565b91505061108f565b50809250505090565b60006001600083815260200190815260200160002090506000816000015403611397576040517f08c379a000000000000000000000000000000000000000000000000000000000815260040161138e90612690565b60405180910390fd5b8060080160009054906101000a900460ff16156113e9576040517f08c379a00000000000000000000000000000000000000000000000000000000081526004016113e0906126fc565b60405180910390fd5b8060080160019054906101000a900460ff161561143b576040517f08c379a000000000000000000000000000000000000000000000000000000000815260040161143290612768565b60405180910390fd5b80600401543414611481576040517f08c379a0000000000000000000000000000000000000000000000000000000008152600401611478906127d4565b60405180910390fd5b60018160080160006101000a81548160ff02191690831515021790555060008160020160009054906101000a900473ffffffffffffffffffffffffffffffffffffffff1673ffffffffffffffffffffffffffffffffffffffff16346040516114e890612825565b60006040518083038185875af1925050503d8060008114611525576040519150601f19603f3d011682016040523d82523d6000602084013e61152a565b606091505b505090508061156e576040517f08c379a000000000000000000000000000000000000000000000000000000000815260040161156590612886565b60405180910390fd5b3373ffffffffffffffffffffffffffffffffffffffff16837f85a7508bc071188c9b624ef6d9f4fdee4bbab2f757d081690085acb74d8eed6b8460010134426040516115bc9392919061292a565b60405180910390a3505050565b60006001600083815260200190815260200160002090506000816000015403611627576040517f08c379a000000000000000000000000000000000000000000000000000000000815260040161161e90612690565b60405180910390fd5b8060020160009054906101000a900473ffffffffffffffffffffffffffffffffffffffff1673ffffffffffffffffffffffffffffffffffffffff163373ffffffffffffffffffffffffffffffffffffffff16146116b9576040517f08c379a00000000000000000000000000000000000000000000000000000000081526004016116b0906129b4565b60405180910390fd5b8060080160009054906101000a900460ff161561170b576040517f08c379a000000000000000000000000000000000000000000000000000000000815260040161170290612a20565b60405180910390fd5b8060080160019054906101000a900460ff161561175d576040517f08c379a000000000000000000000000000000000000000000000000000000000815260040161175490612a8c565b60405180910390fd5b60018160080160016101000a81548160ff021916908315150217905550817fcd25ab8c3ec2731c81120b0f6206453bd5b52954eb4e795c271397ea2480a41f826001016040516117ad9190612aac565b60405180910390a25050565b6040518061014001604052806000815260200160608152602001600073ffffffffffffffffffffffffffffffffffffffff168152602001600073ffffffffffffffffffffffffffffffffffffffff168152602001600081526020016000815260200160008152602001606081526020016000151581526020016000151581525090565b6000819050919050565b61184f8161183c565b82525050565b600060208201905061186a6000830184611846565b92915050565b600081519050919050565b600082825260208201905092915050565b6000819050602082019050919050565b6118a58161183c565b82525050565b600081519050919050565b600082825260208201905092915050565b60005b838110156118e55780820151818401526020810190506118ca565b60008484015250505050565b6000601f19601f8301169050919050565b600061190d826118ab565b61191781856118b6565b93506119278185602086016118c7565b611930816118f1565b840191505092915050565b600073ffffffffffffffffffffffffffffffffffffffff82169050919050565b60006119668261193b565b9050919050565b6119768161195b565b82525050565b60006119878261193b565b9050919050565b6119978161197c565b82525050565b60008115159050919050565b6119b28161199d565b82525050565b6000610140830160008301516119d1600086018261189c565b50602083015184820360208601526119e98282611902565b91505060408301516119fe604086018261196d565b506060830151611a11606086018261198e565b506080830151611a24608086018261189c565b5060a0830151611a3760a086018261189c565b5060c0830151611a4a60c086018261189c565b5060e083015184820360e0860152611a628282611902565b915050610100830151611a796101008601826119a9565b50610120830151611a8e6101208601826119a9565b508091505092915050565b6000611aa583836119b8565b905092915050565b6000602082019050919050565b6000611ac582611870565b611acf818561187b565b935083602082028501611ae18561188c565b8060005b85811015611b1d5784840389528151611afe8582611a99565b9450611b0983611aad565b925060208a01995050600181019050611ae5565b50829750879550505050505092915050565b60006020820190508181036000830152611b498184611aba565b905092915050565b6000604051905090565b600080fd5b600080fd5b600080fd5b600080fd5b7f4e487b7100000000000000000000000000000000000000000000000000000000600052604160045260246000fd5b611ba7826118f1565b810181811067ffffffffffffffff82111715611bc657611bc5611b6f565b5b80604052505050565b6000611bd9611b51565b9050611be58282611b9e565b919050565b600067ffffffffffffffff821115611c0557611c04611b6f565b5b611c0e826118f1565b9050602081019050919050565b82818337600083830152505050565b6000611c3d611c3884611bea565b611bcf565b905082815260208101848484011115611c5957611c58611b6a565b5b611c64848285611c1b565b509392505050565b600082601f830112611c8157611c80611b65565b5b8135611c91848260208601611c2a565b91505092915050565b611ca38161197c565b8114611cae57600080fd5b50565b600081359050611cc081611c9a565b92915050565b611ccf8161183c565b8114611cda57600080fd5b50565b600081359050611cec81611cc6565b92915050565b600080600080600060a08688031215611d0e57611d0d611b5b565b5b600086013567ffffffffffffffff811115611d2c57611d2b611b60565b5b611d3888828901611c6c565b9550506020611d4988828901611cb1565b9450506040611d5a88828901611cdd565b9350506060611d6b88828901611cdd565b925050608086013567ffffffffffffffff811115611d8c57611d8b611b60565b5b611d9888828901611c6c565b9150509295509295909350565b60008060408385031215611dbc57611dbb611b5b565b5b6000611dca85828601611cb1565b9250506020611ddb85828601611cdd565b9150509250929050565b600060208284031215611dfb57611dfa611b5b565b5b6000611e0984828501611cdd565b91505092915050565b600061014083016000830151611e2b600086018261189c565b5060208301518482036020860152611e438282611902565b9150506040830151611e58604086018261196d565b506060830151611e6b606086018261198e565b506080830151611e7e608086018261189c565b5060a0830151611e9160a086018261189c565b5060c0830151611ea460c086018261189c565b5060e083015184820360e0860152611ebc8282611902565b915050610100830151611ed36101008601826119a9565b50610120830151611ee86101208601826119a9565b508091505092915050565b60006020820190508181036000830152611f0d8184611e12565b905092915050565b600060208284031215611f2b57611f2a611b5b565b5b600082013567ffffffffffffffff811115611f4957611f48611b60565b5b611f5584828501611c6c565b91505092915050565b600082825260208201905092915050565b6000611f7a826118ab565b611f848185611f5e565b9350611f948185602086016118c7565b611f9d816118f1565b840191505092915050565b611fb18161195b565b82525050565b611fc08161197c565b82525050565b611fcf8161199d565b82525050565b600061014082019050611feb600083018d611846565b8181036020830152611ffd818c611f6f565b905061200c604083018b611fa8565b612019606083018a611fb7565b6120266080830189611846565b61203360a0830188611846565b61204060c0830187611846565b81810360e08301526120528186611f6f565b9050612062610100830185611fc6565b612070610120830184611fc6565b9b9a5050505050505050505050565b7f4e487b7100000000000000000000000000000000000000000000000000000000600052603260045260246000fd5b7f4e487b7100000000000000000000000000000000000000000000000000000000600052602260045260246000fd5b600060028204905060018216806120f557607f821691505b602082108103612108576121076120ae565b5b50919050565b7f4e487b7100000000000000000000000000000000000000000000000000000000600052601160045260246000fd5b60006121488261183c565b91507fffffffffffffffffffffffffffffffffffffffffffffffffffffffffffffffff820361217a5761217961210e565b5b600182019050919050565b7f416d6f756e74206d7573742062652067726561746572207468616e2030000000600082015250565b60006121bb601d83611f5e565b91506121c682612185565b602082019050919050565b600060208201905081810360008301526121ea816121ae565b9050919050565b7f496e76616c696420627579657220616464726573730000000000000000000000600082015250565b6000612227601583611f5e565b9150612232826121f1565b602082019050919050565b600060208201905081810360008301526122568161221a565b9050919050565b7f496e766f696365206e756d626572206973207265717569726564000000000000600082015250565b6000612293601a83611f5e565b915061229e8261225d565b602082019050919050565b600060208201905081810360008301526122c281612286565b9050919050565b600081905092915050565b60006122df826118ab565b6122e981856122c9565b93506122f98185602086016118c7565b80840191505092915050565b600061231182846122d4565b915081905092915050565b7f496e766f696365206e756d62657220616c726561647920657869737473000000600082015250565b6000612352601d83611f5e565b915061235d8261231c565b602082019050919050565b6000602082019050818103600083015261238181612345565b9050919050565b60008190508160005260206000209050919050565b60006020601f8301049050919050565b600082821b905092915050565b6000600883026123ea7fffffffffffffffffffffffffffffffffffffffffffffffffffffffffffffffff826123ad565b6123f486836123ad565b95508019841693508086168417925050509392505050565b6000819050919050565b600061243161242c6124278461183c565b61240c565b61183c565b9050919050565b6000819050919050565b61244b83612416565b61245f61245782612438565b8484546123ba565b825550505050565b600090565b612474612467565b61247f818484612442565b505050565b5b818110156124a35761249860008261246c565b600181019050612485565b5050565b601f8211156124e8576124b981612388565b6124c28461239d565b810160208510156124d1578190505b6124e56124dd8561239d565b830182612484565b50505b505050565b600082821c905092915050565b600061250b600019846008026124ed565b1980831691505092915050565b600061252483836124fa565b9150826002028217905092915050565b61253d826118ab565b67ffffffffffffffff81111561255657612555611b6f565b5b61256082546120dd565b61256b8282856124a7565b600060209050601f83116001811461259e576000841561258c578287015190505b6125968582612518565b8655506125fe565b601f1984166125ac86612388565b60005b828110156125d4578489015182556001820191506020850194506020810190506125af565b868310156125f157848901516125ed601f8916826124fa565b8355505b6001600288020188555050505b505050505050565b600060608201905081810360008301526126208186611f6f565b905061262f6020830185611846565b61263c6040830184611846565b949350505050565b7f496e766f69636520646f6573206e6f7420657869737400000000000000000000600082015250565b600061267a601683611f5e565b915061268582612644565b602082019050919050565b600060208201905081810360008301526126a98161266d565b9050919050565b7f496e766f69636520697320616c72656164792070616964000000000000000000600082015250565b60006126e6601783611f5e565b91506126f1826126b0565b602082019050919050565b60006020820190508181036000830152612715816126d9565b9050919050565b7f496e766f6963652069732063616e63656c6c6564000000000000000000000000600082015250565b6000612752601483611f5e565b915061275d8261271c565b602082019050919050565b6000602082019050818103600083015261278181612745565b9050919050565b7f496e636f7272656374207061796d656e7420616d6f756e740000000000000000600082015250565b60006127be601883611f5e565b91506127c982612788565b602082019050919050565b600060208201905081810360008301526127ed816127b1565b9050919050565b600081905092915050565b50565b600061280f6000836127f4565b915061281a826127ff565b600082019050919050565b600061283082612802565b9150819050919050565b7f5472616e7366657220746f20737570706c696572206661696c65640000000000600082015250565b6000612870601b83611f5e565b915061287b8261283a565b602082019050919050565b6000602082019050818103600083015261289f81612863565b9050919050565b600081546128b3816120dd565b6128bd8186611f5e565b945060018216600081146128d857600181146128ee57612921565b60ff198316865281151560200286019350612921565b6128f785612388565b60005b83811015612919578154818901526001820191506020810190506128fa565b808801955050505b50505092915050565b6000606082019050818103600083015261294481866128a6565b90506129536020830185611846565b6129606040830184611846565b949350505050565b7f4f6e6c7920737570706c6965722063616e2063616e63656c0000000000000000600082015250565b600061299e601883611f5e565b91506129a982612968565b602082019050919050565b600060208201905081810360008301526129cd81612991565b9050919050565b7f43616e6e6f742063616e63656c207061696420696e766f696365000000000000600082015250565b6000612a0a601a83611f5e565b9150612a15826129d4565b602082019050919050565b60006020820190508181036000830152612a39816129fd565b9050919050565b7f496e766f69636520697320616c72656164792063616e63656c6c656400000000600082015250565b6000612a76601c83611f5e565b9150612a8182612a40565b602082019050919050565b60006020820190508181036000830152612aa581612a69565b9050919050565b60006020820190508181036000830152612ac681846128a6565b90509291505056fea2646970667358221220199aed1f392a42e7c0adb6b9fa3de34d28fca5dbbff2e86754d09817a60f624964736f6c63430008140033",
  "linkReferences": {},
  "deployedLinkReferences": {}
}